:020000040000FA
:1000000000400020BD020000CF020000D10200002D
:1000100000000000000000000000000000000000E0
:10002000000000000000000000000000D3020000FB
:100030000000000000000000D5020000D702000010
:10004000D9020000D9020000C9060000D902000050
:10005000D902000000000000D9020000D90200000F
:10006000D9020000D9020000D9020000D902000024
:10007000D9020000D9020000D9020000D902000014
:10008000D902000071050000D9020000D902000069
:1000900021060000D9020000D9020000D9020000A8
:1000A000D9020000D902000000000000000000009A
:1000B0000000000000000000000000000000000040
:1000C00000F002F800F040F80CA030C808382418FE
:1000D0002D18A246671EAB4654465D46AC4201D180
:1000E00000F032F87E460F3E0FCCB6460126334272
:1000F00000D0FB1AA246AB463343184770160000E7
:1001000090160000103A02D378C878C1FAD8520786
:1001100001D330C830C101D504680C6070470000BD
:100120000023002400250026103A01D378C1FBD813
:10013000520700D330C100D50B6070471FB5C046D1
:10014000C04600F08BF91FBD00F064FB1146FFF7BD
:10015000F5FF00F004FA00F02DFD0000401E00BF86
:1001600000BF00BF00BF00BF00BF00BF00BF00BF97
:1001700000BF00BF00BFF1D17047000070B5424D15
:1001800000BF00BF00BF00BF00BF00BF2946002066
:100190000856401C04D12C223C493DA000F09DFD96
:1001A00000BF39484069006837494968084201D0B2
:1001B000012000E00020002801D1012000E0002003
:1001C000044600BF2146284600F045F800BF00BFA6
:1001D00070BD96B006AC204600F0B4FA0446324832
:1001E000002120602046203000F0CFFA0446203C59
:1001F00003A800F0DAFA06AC2C4D7F20C00502906F
:100200002B49029801F052F9019000F039F90646A5
:100210000F4629462046203000F0B3FA32463B46CE
:10022000204600F0CEFA00BF00BF03A800F0B2FAEB
:1002300000BFFEE710B501221221134800F064FA56
:10024000002213211B4800F05FFA002212211A48F5
:1002500000F05AFA10BD70B504460D4600BF0020EC
:100260002056401C04D12422084909A000F035FD85
:1002700000BF002D03D0E1686068086002E02169DA
:100280006068086070BD0000E00000205C150000A0
:100290006F626A2D3E70696E20213D202850696E84
:1002A0004E616D65294E4300601700007D0100001E
:1002B00000247449F800002010010020074802685B
:1002C0000F210A4302600648804706480047FEE7C0
:1002D000FEE7FEE7FEE7FEE7FEE70000240500403C
:1002E00029060000C10000004343514330B55C18AB
:1002F000010C130C0D4692B25D4380B251432C1990
:10030000054655430A0C09044D1962415843010C36
:1003100000044019514130BDFEB5054610460C465B
:10032000184373D0AE468C460020AD1A01469C415E
:1003300067D36646002701243D46B61A9D4102D385
:1003400013463A462124654676462F04360C3E4332
:100350002D0CB61A9D4104D3150C1B042B4312041B
:100360001034654676462F06360A3E432D0AB61AE5
:100370009D4104D3150E1B022B431202083465461F
:1003800076462F0736093E432D09B61A9D4104D300
:10039000150F1B012B431201241D65467646AF073E
:1003A000B6083E43AD08B61A9D4104D3950F9B0095
:1003B0002B439200A41C65467646EF0776083E4321
:1003C0006D08B61A9D411AD392185B41641C16E061
:1003D0000018764665464941B71A9D410191009043
:1003E00009D36046B11A98418E4684460098019917
:1003F0000025401C6941DD0752082A435B08641E42
:10040000E6D57246634603B0F0BDFFE70020014623
:10041000C046C0462A462346F5E701E004C0091F4E
:100420000429FBD28B0701D50280801CC90700D0AC
:100430000270704700290BD0C30702D00270401C25
:10044000491E022904D3830702D50280801C891E1D
:10045000E3E70022EEE70022DFE7000070B5064C7C
:100460007C44064D7D4403E0206800198047241D2C
:10047000AC42F9D170BD0000281300002813000021
:1004800001460002CA1504D00123DB071843002AE5
:1004900012DBBE239A1A0AD40146D1401346203BF0
:1004A00001D4D840704720239A1A90407047FF2209
:1004B00048001206904202D9002001467047C81732
:1004C000C043C117704710B500F00AF800F001F8FA
:1004D00010BD10B5002801D000F01AF810BD0000C2
:1004E00010B5002102A000F019F8012010BD000095
:1004F0005349475056464E3A2050757265207669EA
:10050000727475616C20666E2063616C6C6564004A
:1005100001491820ABBEFEE72600020070B5054673
:100520000C460A2000E06D1C00F012F8002D06D0E9
:1005300028780028F7D102E0641C00F009F8002CAC
:1005400002D020780028F7D10A2000F001F870BD11
:1005500008B5694608700320ABBE08BD704710B5EA
:1005600000F045FC00F042FCFFF733FE10BD000038
:10057000F8B525480021016041608160C160234ACF
:1005800011605068224E002808D0B36AF06A012535
:100590002D065B1900246041B362F06200205060B8
:1005A0003469601C2FD01B48002740687169401ACD
:1005B00005022D0A24204443B06822185068A8423E
:1005C0000ED8B3692D1AC719146A002B03D0D1694C
:1005D0009069984702E09169D0698847601CE9D129
:1005E000B178F078814206D1401CC0B2F070022888
:1005F00001D10020F07000060749800D0F50012046
:10060000064900050860F8BD401101400011014095
:10061000B000002000150140CC00002000E200E006
:1006200010B500F009FC10BD30B42148214A018CFE
:10063000CBB20121012B17D1848C240714D1048D56
:100640002406250F03D1858D2D062D0F0FD0240FE5
:10065000012C03D1858D2D062D0F08D0032C03D13D
:10066000848D2406240F02D0012B07D014E0124BF6
:1006700053600123114CDB03A36102E0838C1B0751
:100680000AD1038D1B061B0F042B05D1808D00069C
:10069000000F01D10A48816091610A48002242603E
:1006A0008205916041680029FCD030BC7047000091
:1006B000C00F00F000050040DFFF07C0006C0040E5
:1006C00000060040000100400C4841680A060C4941
:1006D00004D5CA69002A01D0012106E0406840071C
:1006E0000AD58868002807D000210648006800283D
:1006F00002D0044A9268104770470000002300406F
:10070000002100400400002070B504460D46164646
:1007100018212046FFF79FFE32462946204600F06A
:10072000AFFA204670BD01688968084708B5009097
:10073000083000F0CDFD08BD10B5083000F030FEE7
:1007400010BD000010B50446054820600020A060E0
:10075000E06020616061034800F042FE204610BD69
:100760004C170000270700000168002900D0084747
:100770004368002B04D001468269083118461047AF
:100780007047016000214160704700224260826131
:100790000160704710B504460068002804D100F0DD
:1007A000DDFD60600120206010BD70B50025056092
:1007B00045600446856000F0D1FDA560606020467C
:1007C00070BD70B515461E460446FFF7B5FFE661DD
:1007D000A56100F0C3FDA269E169821800234B41C5
:1007E0002046FFF7A3FF70BD10B50446C3688268BA
:1007F0008169C069521843412046FFF797FF2046A0
:100800002030FFF7B1FF10BD10B50020FFF75BFEF1
:1008100010BD000002486A46C008C00070470000D2
:100820004702002010B405494968054B9C6ADB6A01
:1008300021434360016010BC002070470015014057
:10084000B000002070B4144DAC68002C12D0002A07
:1008500013D0002811D02D780023002D07DD242689
:100860005E43A65D002E0BD05B1CAB42F7DB70BC79
:100870000420704770BC0820704770BC0720704788
:10088000242501265D4366552C196170A261036021
:1008900070BC002070470000B0000020FFB581B0A0
:1008A0001D4616460F4698077DD1002D7BD04A483D
:1008B00000240079002819D001204849400408602C
:1008C0004749401088604749801C8860464901209C
:1008D00048602F20FFF742FC4349012088603E48D2
:1008E00044612F20FFF73AFC3B4804713A490A98CB
:1008F00088610F7028468D60002F13D0014624397F
:100900001038FA0703D024310C70243004707A08B0
:1009100008D024235C541C54483148300C700470B7
:10092000521EF6D12420474378192B4D03216970BC
:100930002946C860014604701831447086704160D1
:10094000324618235A430472531844728672C360A5
:1009500004744474D118867441610020C043294650
:10096000086108468470C4700124204923050B6087
:100970001F480268C026120A1202324302601D4A52
:1009800013601D4E0198B0601C4B1868FF273F0292
:10099000B8430327BF03384318602846007900286E
:1009A00014D103E0FFE7072005B0F0BD01200C4B98
:1009B000000458600B4B801C5860000408601060F5
:1009C000094804602F20FFF7C9FB2C71706868612B
:1009D000002005B0F0BD0000B000002080E100E084
:1009E00040130140001301400010014080E200E08C
:1009F00014E400E000E100E00015014010E400E034
:100A0000F0B4354B9D68002D0CD01C78A04201D26B
:100A1000052902D2F0BC07207047242444432E5DF0
:100A2000012E02D0F0BC0820704764196478012CB4
:100A300016D00026294D6C68E405E40D20D0103C4A
:100A400064B2002C0EDA27073F0F083FBF08BF0033
:100A50007D19ED69A407E40EE5402C06A40F0BE018
:100A60000E46E7E7A5081E4FAD00ED192D68A40757
:100A7000E40EE5402C06A40F012C26D0032C26D032
:100A800002248C46DB68E100CC186378A7781D4609
:100A90005B1C9F4200D1002327789F4219D0182168
:100AA00067684D43791914D001250D7048600D48D1
:100AB000406888600E6160464A61C8600A49637098
:100AC00028050860F0BC002070470024D9E7012405
:100AD000D7E7F0BC04207047B000002000ED00E034
:100AE00000E400E00015014000E200E02D4A9168BA
:100AF000002909D01378984201D307207047242396
:100B00004343C95C012901D008207047F0B4264B4B
:100B100059680424C905C90D00291ED0103949B2ED
:100B200000290CDA0D072D0F083DAD08AD00EB18BC
:100B3000DB698907C90ECB401906890F09E08B08CC
:100B40001A4D9B005B191B688907C90ECB4019061B
:100B5000890F01291FD003291FD00221D268C900A3
:100B60008A18517895780B46491C8D4200D1002196
:100B7000167800258E4212D0182756687B43F3184A
:100B80000DD002241C70586051700949E0040860BF
:100B90002846F0BC70470021E0E70121DEE720464F
:100BA000F0BC7047B000002000ED00E000E400E081
:100BB00000E200E0002801D000F094F8FEE7000019
:100BC00070B50446002020560D46401C04D12A2250
:100BD0000A490BA000F081F80F48002D08D0012D24
:100BE00005D10022A256012192001018016070BDAB
:100BF0000021625692001018016070BDE4160000DA
:100C00006F626A2D3E70696E20213D202850696E0A
:100C10004E616D65294E43000007005001704A1C6B
:100C20000AD001228A4005494260C160091D016164
:100C3000091D4161091D81607047000008050050D1
:100C400070B50D4604460026FFF7E8FF6D1C12D074
:100C5000A057401C04D124220749084800F03DF861
:100C600021696068086001212046FFF7A9FF31462D
:100C7000204600F02BF870BD2C1600001416000062
:100C8000F8B504460E4600271546FFF7C7FF761C49
:100C900016D0E057401C04D124220A490A4800F02B
:100CA0001CF86068002D01D0E16800E0216908604F
:100CB00001212046FFF784FF3946204600F006F860
:100CC000F8BD00002C1600001416000010B50246F6
:100CD0000020105600F08CF810BD10B500F002F89E
:100CE00010BD000098B012216846FFF7A9FF13213C
:100CF00006A8FFF7A5FF12210CA8FFF7A1FF1321FB
:100D000012A8FFF79DFF694600200856401C04D139
:100D1000242234493448FFF7E0FF03990198086022
:100D2000694618200856401C04D124222D492E481B
:100D3000FFF7D3FF0A990798086008A91020085602
:100D4000401C04D1242227492748FFF7C6FF1099E9
:100D50000D98086010A908200856401C04D12422D0
:100D600020492148FFF7B9FF15991398086096208C
:100D700000F08EFB694600200856401C04D1242256
:100D800018491948FFF7A9FF0499019808606946B6
:100D900018200856401C04D1242212491248FFF79B
:100DA0009CFF09990798086008A910200856401C64
:100DB00004D124220B490C48FFF78FFF0F990D989F
:100DC000086010A908200856401C04D124220549B7
:100DD0000548FFF782FF169913980860962000F0E7
:100DE00057FB90E7BC150000A41500007047704742
:100DF00070B504460D46401C04D11A22074908A0CC
:100E0000FFF76BFF0B48A100081801680C22914303
:100E100001600168AA001143016070BD84160000E2
:100E200070696E20213D202850696E4E616D6529E4
:100E30004E43000000070050F0B5002087B0C043CB
:100E40000290FD48416901918278C4780369A24209
:100E500011D0521CD2B28270022A01D100228270BB
:100E60001206F64C920DA258009251180902090A76
:100E70004161012101E000210091EF4806930491B6
:100E80004078411EC9B20391002876D00398C10072
:100E9000E948C2688F183E787978B1426ED0182040
:100EA00070437968761C0818B978F6B2B14200D15F
:100EB00000260178022902D003296ED15FE0406844
:100EC00024210246DC4B4A43996852180592127D50
:100ED000002A62D01D69AC462C466A1C49D0844267
:100EE00007D02546242254436218146A621CF6D1A6
:100EF0003FE0601C3DD0A54228D1604624225043EB
:100F0000CD4B4018006A1861401C1FD1184600796B
:100F100000281BD00120CA4940040860C94940107C
:100F20008860C949801C8860C849012048602F201A
:100F3000FFF714F9C54901208860BF4900204861C6
:100F40002F20FFF70BF9BC490020087124204443EF
:100F5000B948242381685D4360184268006A6B18B1
:100F60001862431C05D0242358434018416889184F
:100F700041600599002008750FE019E011E0AE4BC3
:100F80001869411C09D09A68002124246043801804
:100F90000175006A441CF8D118617878B04200D01D
:100FA0007DE70399481EC0B20390002900D06DE789
:100FB000A14801690698814201D0012000E000208B
:100FC00003900498002829D001980024009A8446B0
:100FD000491C21D098488668974924200B695843BA
:100FE00080194568954202D9A91A416014E0521B44
:100FF0002C19002545600575056A0D6101690029F8
:1010000008D067463F193F023F0A8760C1600299D6
:10101000016202936D1CDFD1012003900298864982
:1010200000900869069049784A1ED2B201920029C0
:1010300071D081498B684A690492C9680591019908
:10104000CA000599551881E00099491C06D0009AFC
:1010500024215143C9180C6A00941EE029781822F3
:101060004A436C68491CC9B2A4182970AA789142F5
:1010700001D1002129706268242151432678C918C2
:10108000012E67D10E7D002E64D1A6688E60E668C1
:10109000CE6026690E616469CC618C68049E6C4FD9
:1010A000A61B3602360ABE4203D2CC6834194C6005
:1010B0000AE0049E341B2402CE68240AA64201D909
:1010C000341B00E000244C6000248C60CC600124C0
:1010D0000C75A41E0C6224215143C9188C46411C76
:1010E00014D061464C6824214143C91849688C4298
:1010F0000ED824214143C9184968091B24244443BC
:10110000E41861606146086210461FE010461DE069
:101110000146029003E02AE00291316AE41B4E1C72
:101120000BD024264E43F6187768A742F4D3242721
:101130004F43FF187F683F1B7760664674606446C4
:101140002162029924246143C9180A620099491C4A
:1011500000D079E729786A789142FAD1019A511E34
:10116000C9B20191002A00D069E733490861324CC5
:1011700006992069884202D1039900293DD0411C7B
:101180003DD02D49242250438A6880184668314852
:1011900044684F69E01B05022D0A0879ED1C002800
:1011A00014D101202749000448602749801C486069
:1011B0002949000408602949086024490120086081
:1011C0002F20FEF7CBFF1C4901200871B54200D249
:1011D0003546E81900022249000A08601D4949689D
:1011E000001B091B0902090A0002C91C000A8142EE
:1011F00003D901201B494004086007B0F0BD2079E5
:101200000028FAD001200E49400408600D49401022
:1012100088600D49801C88600C4E012575602F2068
:10122000FEF79CFFB56000252F206561FEF796FF55
:10123000257107B0F0BD0000B0000020CC000020F8
:1012400080E100E040130140001301400010014024
:10125000FFFF7F000015014080E200E000E100E0B8
:101260004015014000E200E010B50349002048703D
:1012700000F054F810BD0000A000002004484178A0
:10128000002904D010B54068FFF730FC10BD70474E
:10129000A000002004484178002904D010B540681F
:1012A000FFF724FC10BD7047A000002038B5064CA5
:1012B0002078002807D1054B022201210090FFF77A
:1012C000EDFA0120207038BDA00000202801002088
:1012D000F8B50746069872B600217B603A60B860A0
:1012E0000D480468002C0FD0256866681846551B09
:1012F000B04103D42146E468002CF5D1002903D085
:10130000CF60FC6062B6F8BD03481946076010461E
:1013100000F070F8F5E70000A800002010B5FFF716
:10132000ADFF0D4C206800280ED000F017F82168A2
:101330000A68101A00280ADCC86820606268002A5F
:10134000F0D088689047EDE7FFF7A4FF10BD104686
:10135000496800F04FF810BDA800002010B50D4CF2
:1013600084B02078002807D10B4B02220121009085
:10137000FFF794FA0120207002A8FFF753FA074AFA
:10138000002303990298FEF7AFFF4904C00B0843FE
:1013900004B010BDA00000202801002040420F0032
:1013A00010B572B60D4A116881420BD1C168116047
:1013B000002904D00868496800F01CF80CE0FFF729
:1013C00069FF09E0002907D0CA68824202D1C068DB
:1013D000C86001E01100F7D162B610BDA80000207E
:1013E00010B50446FFF762FF0148446010BD0000DD
:1013F000A8000020F0B513B4204C05462078012643
:1014000084B0002806D11E4B022201210090FFF774
:1014100045FA26706068401C06D11A4A00211A4815
:10142000FFF710FA002826D16078002823D102A8FF
:10143000FFF7F8F902986A0C070205983F0AC10302
:101440001143E803114A0023FEF766FF401C000227
:10145000000AB84201D3C11B03E00121381A090672
:10146000091A052900D2052100226068FFF7C8FA91
:10147000002800D1667007B0F0BD0000A000002079
:101480002801002069120000A400002040420F0043
:1014900070B57D21C90048430446FFF75FFF05464C
:1014A000FFF75CFF401BA042FAD370BD70B542004D
:1014B00064414B005C41120E39D01B0E38D0FF2A1C
:1014C0003CD0FF2B3AD040024902400A490A0600AC
:1014D00045184E43000A090AD2184843ED017F3AE5
:1014E0000104731A4019190C4318990F04D00121F3
:1014F0005B0849075B1A521CD80904D3401CF5034A
:1015000001D19D0607D0FF2A08D2D50506D0E407F1
:101510002043401970BD0125A843F4E7002A01DCEF
:10152000E00770BD2402FF202043C00570BD1B0EE4
:10153000FF2A03D0FF2B01D0E00770BDFF26450036
:101540003606B54206D84D00B54203D8D218FF2A58
:1015500000D0E7E7004870BD0000C07F6D626564A1
:101560002F5441524745545F4E524635313832323E
:101570002F5441524745545F4E4F524449432F54D4
:1015800041524745545F4D43555F4E5246353138C1
:1015900032322F6770696F5F6F626A6563742E689D
:1015A000000000006F626A2D3E70696E20213D20B0
:1015B0002850696E4E616D65294E4300633A2F775E
:1015C0006F726B2F6D6265642F6275696C645C6D00
:1015D0006265645C5441524745545F4E5246353112
:1015E0003832325C5441524745545F4E4F52444961
:1015F000435C5441524745545F4D43555F4E5246FC
:1016000035313832322F6770696F5F6F626A656398
:10161000742E68006F626A2D3E70696E20213D2035
:101620002850696E4E616D65294E4300633A2F77ED
:101630006F726B2F6D6265642F6275696C645C6D8F
:101640006265645C5441524745545F4E52463531A1
:101650003832325C5441524745545F4E4F524449F0
:10166000435C5441524745545F4D43555F4E52468B
:1016700035313832322F6770696F5F6F626A656328
:10168000742E6800433A5C776F726B5C6D626564C0
:101690005C6769746875622D6E65775C6C696272EF
:1016A00061726965735C6D6265645C7461726765C3
:1016B00074735C68616C5C5441524745545F4E4F93
:1016C000524449435C5441524745545F4D43555F32
:1016D0004E524635313832325C70696E6D61702E13
:1016E00063000000433A5C776F726B5C6D62656407
:1016F0005C6769746875622D6E65775C6C6962728F
:1017000061726965735C6D6265645C746172676562
:1017100074735C68616C5C5441524745545F4E4F32
:10172000524449435C5441524745545F4D43555FD1
:101730004E524635313832325C6770696F5F617086
:10174000692E63000000000000000000000000009F
:101750000000000009080000000000000000000078
:101760000000000000000000E907000090170000E2
:1017700000000020E00000000401000070180000DC
:10178000E00000206001000020010000A9EAFFFF46
:101790000024F40000000000000000000000000031
:1017A0000000000000000000B004000000F0040091
:1017B0006009000000D00900C012000000B0130052
:1017C00080250000005027004038000000003B004A
:1017D000004B000000A04E008070000000F075007B
:1017E000127A0000000080000096000000509D006A
:1017F00000E1000000F0EB00002C010000903A0135
:1018000000C2010000E0D7010084030000B0AF0374
:1018100090D00300000000040008070000705F077C
:1018200000100E00A4DFBE0E40420F0000000010AA
:1018300000000000FFFFFFFF0000000000000000AC
:101840000000000000000000000000000000000098
:101850000000000000000000000000000000000088
:101860000000000000000000000000000000000078
:04000005000000C136
:00000001FF
